{
  "contracts/workflow.sol": {
    "ClientRegistry": {
      "abi": [
        {
          "inputs": [
            {
              "internalType": "string",
              "name": "FileNumber",
              "type": "string"
            },
            {
              "internalType": "string",
              "name": "SecurityKey",
              "type": "string"
            },
            {
              "internalType": "int256",
              "name": "No_of_floors",
              "type": "int256"
            },
            {
              "internalType": "int256",
              "name": "Built_Up_Area",
              "type": "int256"
            },
            {
              "internalType": "int256",
              "name": "Net_Plot_Area",
              "type": "int256"
            },
            {
              "internalType": "int256",
              "name": "Parking_Area",
              "type": "int256"
            },
            {
              "internalType": "int256",
              "name": "No_of_Dwelling_Units",
              "type": "int256"
            },
            {
              "internalType": "int256",
              "name": "Height_of_the_Building",
              "type": "int256"
            },
            {
              "internalType": "string",
              "name": "FileUpload",
              "type": "string"
            }
          ],
          "name": "addClientLandDetails",
          "outputs": [],
          "stateMutability": "nonpayable",
          "type": "function"
        },
        {
          "inputs": [
            {
              "internalType": "string",
              "name": "FileNumber",
              "type": "string"
            },
            {
              "internalType": "string",
              "name": "SecurityKey",
              "type": "string"
            }
          ],
          "name": "getClientLandDetails",
          "outputs": [
            {
              "internalType": "int256",
              "name": "No_of_floors",
              "type": "int256"
            },
            {
              "internalType": "int256",
              "name": "Built_Up_Area",
              "type": "int256"
            },
            {
              "internalType": "int256",
              "name": "Net_Plot_Area",
              "type": "int256"
            },
            {
              "internalType": "int256",
              "name": "Parking_Area",
              "type": "int256"
            },
            {
              "internalType": "int256",
              "name": "No_of_Dwelling_Units",
              "type": "int256"
            },
            {
              "internalType": "int256",
              "name": "Height_of_the_Building",
              "type": "int256"
            },
            {
              "internalType": "string",
              "name": "FileUpload",
              "type": "string"
            }
          ],
          "stateMutability": "view",
          "type": "function"
        },
        {
          "inputs": [
            {
              "internalType": "string",
              "name": "FileNumber",
              "type": "string"
            },
            {
              "internalType": "string",
              "name": "SecurityKey",
              "type": "string"
            }
          ],
          "name": "hasBeenUsedTogether",
          "outputs": [
            {
              "internalType": "bool",
              "name": "",
              "type": "bool"
            }
          ],
          "stateMutability": "view",
          "type": "function"
        },
        {
          "inputs": [
            {
              "internalType": "string",
              "name": "FileNumber",
              "type": "string"
            }
          ],
          "name": "hasFileNumberBeenUsed",
          "outputs": [
            {
              "internalType": "bool",
              "name": "",
              "type": "bool"
            }
          ],
          "stateMutability": "view",
          "type": "function"
        },
        {
          "inputs": [
            {
              "internalType": "string",
              "name": "SecurityKey",
              "type": "string"
            }
          ],
          "name": "hasSecurityKeyBeenUsed",
          "outputs": [
            {
              "internalType": "bool",
              "name": "",
              "type": "bool"
            }
          ],
          "stateMutability": "view",
          "type": "function"
        }
      ],
      "evm": {
        "bytecode": {
          "linkReferences": {},
          "object": "608060405234801561001057600080fd5b5061112d806100206000396000f3fe608060405234801561001057600080fd5b50600436106100575760003560e01c8063143a8aa51461005c57806359b9953a1461008c578063ab914d52146100bc578063b2b421a7146100f2578063d5790c4814610122575b600080fd5b610076600480360381019061007191906107d7565b61013e565b604051610083919061086a565b60405180910390f35b6100a660048036038101906100a19190610885565b6101f2565b6040516100b3919061086a565b60405180910390f35b6100d660048036038101906100d191906107d7565b610227565b6040516100e99796959493929190610966565b60405180910390f35b61010c60048036038101906101079190610885565b610435565b604051610119919061086a565b60405180910390f35b61013c60048036038101906101379190610a08565b61046a565b005b60006001836040516101509190610b62565b908152602001604051809103902060009054906101000a900460ff16156101e757816040516020016101829190610b62565b604051602081830303815290604052805190602001206000846040516101a89190610b62565b90815260200160405180910390206007016040516020016101c99190610c71565b604051602081830303815290604052805190602001201490506101ec565b600090505b92915050565b60006001826040516102049190610b62565b908152602001604051809103902060009054906101000a900460ff169050919050565b60008060008060008060606001896040516102429190610b62565b908152602001604051809103902060009054906101000a900460ff1661029d576040517f08c379a000000000000000000000000000000000000000000000000000000000815260040161029490610cd4565b60405180910390fd5b876040516020016102ae9190610b62565b6040516020818303038152906040528051906020012060008a6040516102d49190610b62565b90815260200160405180910390206007016040516020016102f59190610c71565b604051602081830303815290604052805190602001201461034b576040517f08c379a000000000000000000000000000000000000000000000000000000000815260040161034290610d40565b60405180910390fd5b6000808a60405161035c9190610b62565b908152602001604051809103902090508060000154816001015482600201548360030154846004015485600501548660060180805461039a90610ba8565b80601f01602080910402602001604051908101604052809291908181526020018280546103c690610ba8565b80156104135780601f106103e857610100808354040283529160200191610413565b820191906000526020600020905b8154815290600101906020018083116103f657829003601f168201915b5050505050905097509750975097509750975097505092959891949750929550565b60006002826040516104479190610b62565b908152602001604051809103902060009054906101000a900460ff169050919050565b60018960405161047a9190610b62565b908152602001604051809103902060009054906101000a900460ff16156104d6576040517f08c379a00000000000000000000000000000000000000000000000000000000081526004016104cd90610dd2565b60405180910390fd5b6002886040516104e69190610b62565b908152602001604051809103902060009054906101000a900460ff1615610542576040517f08c379a000000000000000000000000000000000000000000000000000000000815260040161053990610e64565b60405180910390fd5b6001808a6040516105539190610b62565b908152602001604051809103902060006101000a81548160ff021916908315150217905550600160028960405161058a9190610b62565b908152602001604051809103902060006101000a81548160ff0219169083151502179055506040518061010001604052808881526020018781526020018681526020018581526020018481526020018381526020018281526020018981525060008a6040516105f99190610b62565b9081526020016040518091039020600082015181600001556020820151816001015560408201518160020155606082015181600301556080820151816004015560a0820151816005015560c08201518160060190816106589190611025565b5060e082015181600701908161066e9190611025565b50905050505050505050505050565b6000604051905090565b600080fd5b600080fd5b600080fd5b600080fd5b6000601f19601f8301169050919050565b7f4e487b7100000000000000000000000000000000000000000000000000000000600052604160045260246000fd5b6106e48261069b565b810181811067ffffffffffffffff82111715610703576107026106ac565b5b80604052505050565b600061071661067d565b905061072282826106db565b919050565b600067ffffffffffffffff821115610742576107416106ac565b5b61074b8261069b565b9050602081019050919050565b82818337600083830152505050565b600061077a61077584610727565b61070c565b90508281526020810184848401111561079657610795610696565b5b6107a1848285610758565b509392505050565b600082601f8301126107be576107bd610691565b5b81356107ce848260208601610767565b91505092915050565b600080604083850312156107ee576107ed610687565b5b600083013567ffffffffffffffff81111561080c5761080b61068c565b5b610818858286016107a9565b925050602083013567ffffffffffffffff8111156108395761083861068c565b5b610845858286016107a9565b9150509250929050565b60008115159050919050565b6108648161084f565b82525050565b600060208201905061087f600083018461085b565b92915050565b60006020828403121561089b5761089a610687565b5b600082013567ffffffffffffffff8111156108b9576108b861068c565b5b6108c5848285016107a9565b91505092915050565b6000819050919050565b6108e1816108ce565b82525050565b600081519050919050565b600082825260208201905092915050565b60005b83811015610921578082015181840152602081019050610906565b60008484015250505050565b6000610938826108e7565b61094281856108f2565b9350610952818560208601610903565b61095b8161069b565b840191505092915050565b600060e08201905061097b600083018a6108d8565b61098860208301896108d8565b61099560408301886108d8565b6109a260608301876108d8565b6109af60808301866108d8565b6109bc60a08301856108d8565b81810360c08301526109ce818461092d565b905098975050505050505050565b6109e5816108ce565b81146109f057600080fd5b50565b600081359050610a02816109dc565b92915050565b60008060008060008060008060006101208a8c031215610a2b57610a2a610687565b5b60008a013567ffffffffffffffff811115610a4957610a4861068c565b5b610a558c828d016107a9565b99505060208a013567ffffffffffffffff811115610a7657610a7561068c565b5b610a828c828d016107a9565b9850506040610a938c828d016109f3565b9750506060610aa48c828d016109f3565b9650506080610ab58c828d016109f3565b95505060a0610ac68c828d016109f3565b94505060c0610ad78c828d016109f3565b93505060e0610ae88c828d016109f3565b9250506101008a013567ffffffffffffffff811115610b0a57610b0961068c565b5b610b168c828d016107a9565b9150509295985092959850929598565b600081905092915050565b6000610b3c826108e7565b610b468185610b26565b9350610b56818560208601610903565b80840191505092915050565b6000610b6e8284610b31565b915081905092915050565b7f4e487b7100000000000000000000000000000000000000000000000000000000600052602260045260246000fd5b60006002820490506001821680610bc057607f821691505b602082108103610bd357610bd2610b79565b5b50919050565b60008190508160005260206000209050919050565b60008154610bfb81610ba8565b610c058186610b26565b94506001821660008114610c205760018114610c3557610c68565b60ff1983168652811515820286019350610c68565b610c3e85610bd9565b60005b83811015610c6057815481890152600182019150602081019050610c41565b838801955050505b50505092915050565b6000610c7d8284610bee565b915081905092915050565b7f46696c65204e756d62657220646f6573206e6f74206578697374000000000000600082015250565b6000610cbe601a836108f2565b9150610cc982610c88565b602082019050919050565b60006020820190508181036000830152610ced81610cb1565b9050919050565b7f496e76616c6964205365637572697479204b6579000000000000000000000000600082015250565b6000610d2a6014836108f2565b9150610d3582610cf4565b602082019050919050565b60006020820190508181036000830152610d5981610d1d565b9050919050565b7f46696c65204e756d6265722068617320616c7265616479206265656e2075736560008201527f6400000000000000000000000000000000000000000000000000000000000000602082015250565b6000610dbc6021836108f2565b9150610dc782610d60565b604082019050919050565b60006020820190508181036000830152610deb81610daf565b9050919050565b7f5365637572697479204b65792068617320616c7265616479206265656e20757360008201527f6564000000000000000000000000000000000000000000000000000000000000602082015250565b6000610e4e6022836108f2565b9150610e5982610df2565b604082019050919050565b60006020820190508181036000830152610e7d81610e41565b9050919050565b60006020601f8301049050919050565b600082821b905092915050565b600060088302610ed17fffffffffffffffffffffffffffffffffffffffffffffffffffffffffffffffff82610e94565b610edb8683610e94565b95508019841693508086168417925050509392505050565b6000819050919050565b6000819050919050565b6000610f22610f1d610f1884610ef3565b610efd565b610ef3565b9050919050565b6000819050919050565b610f3c83610f07565b610f50610f4882610f29565b848454610ea1565b825550505050565b600090565b610f65610f58565b610f70818484610f33565b505050565b5b81811015610f9457610f89600082610f5d565b600181019050610f76565b5050565b601f821115610fd957610faa81610bd9565b610fb384610e84565b81016020851015610fc2578190505b610fd6610fce85610e84565b830182610f75565b50505b505050565b600082821c905092915050565b6000610ffc60001984600802610fde565b1980831691505092915050565b60006110158383610feb565b9150826002028217905092915050565b61102e826108e7565b67ffffffffffffffff811115611047576110466106ac565b5b6110518254610ba8565b61105c828285610f98565b600060209050601f83116001811461108f576000841561107d578287015190505b6110878582611009565b8655506110ef565b601f19841661109d86610bd9565b60005b828110156110c5578489015182556001820191506020850194506020810190506110a0565b868310156110e257848901516110de601f891682610feb565b8355505b6001600288020188555050505b50505050505056fea2646970667358221220badb09f9d28cbcfd533da90b91e48d507ae03afeec5adf5b4db6338e9afd570864736f6c63430008180033",
          "opcodes": "PUSH1 0x80 PUSH1 0x40 MSTORE CALLVALUE DUP1 ISZERO PUSH2 0x10 JUMPI PUSH1 0x0 DUP1 REVERT JUMPDEST POP PUSH2 0x112D DUP1 PUSH2 0x20 PUSH1 0x0 CODECOPY PUSH1 0x0 RETURN INVALID PUSH1 0x80 PUSH1 0x40 MSTORE CALLVALUE DUP1 ISZERO PUSH2 0x10 JUMPI PUSH1 0x0 DUP1 REVERT JUMPDEST POP PUSH1 0x4 CALLDATASIZE LT PUSH2 0x57 JUMPI PUSH1 0x0 CALLDATALOAD PUSH1 0xE0 SHR DUP1 PUSH4 0x143A8AA5 EQ PUSH2 0x5C JUMPI DUP1 PUSH4 0x59B9953A EQ PUSH2 0x8C JUMPI DUP1 PUSH4 0xAB914D52 EQ PUSH2 0xBC JUMPI DUP1 PUSH4 0xB2B421A7 EQ PUSH2 0xF2 JUMPI DUP1 PUSH4 0xD5790C48 EQ PUSH2 0x122 JUMPI JUMPDEST PUSH1 0x0 DUP1 REVERT JUMPDEST PUSH2 0x76 PUSH1 0x4 DUP1 CALLDATASIZE SUB DUP2 ADD SWAP1 PUSH2 0x71 SWAP2 SWAP1 PUSH2 0x7D7 JUMP JUMPDEST PUSH2 0x13E JUMP JUMPDEST PUSH1 0x40 MLOAD PUSH2 0x83 SWAP2 SWAP1 PUSH2 0x86A JUMP JUMPDEST PUSH1 0x40 MLOAD DUP1 SWAP2 SUB SWAP1 RETURN JUMPDEST PUSH2 0xA6 PUSH1 0x4 DUP1 CALLDATASIZE SUB DUP2 ADD SWAP1 PUSH2 0xA1 SWAP2 SWAP1 PUSH2 0x885 JUMP JUMPDEST PUSH2 0x1F2 JUMP JUMPDEST PUSH1 0x40 MLOAD PUSH2 0xB3 SWAP2 SWAP1 PUSH2 0x86A JUMP JUMPDEST PUSH1 0x40 MLOAD DUP1 SWAP2 SUB SWAP1 RETURN JUMPDEST PUSH2 0xD6 PUSH1 0x4 DUP1 CALLDATASIZE SUB DUP2 ADD SWAP1 PUSH2 0xD1 SWAP2 SWAP1 PUSH2 0x7D7 JUMP JUMPDEST PUSH2 0x227 JUMP JUMPDEST PUSH1 0x40 MLOAD PUSH2 0xE9 SWAP8 SWAP7 SWAP6 SWAP5 SWAP4 SWAP3 SWAP2 SWAP1 PUSH2 0x966 JUMP JUMPDEST PUSH1 0x40 MLOAD DUP1 SWAP2 SUB SWAP1 RETURN JUMPDEST PUSH2 0x10C PUSH1 0x4 DUP1 CALLDATASIZE SUB DUP2 ADD SWAP1 PUSH2 0x107 SWAP2 SWAP1 PUSH2 0x885 JUMP JUMPDEST PUSH2 0x435 JUMP JUMPDEST PUSH1 0x40 MLOAD PUSH2 0x119 SWAP2 SWAP1 PUSH2 0x86A JUMP JUMPDEST PUSH1 0x40 MLOAD DUP1 SWAP2 SUB SWAP1 RETURN JUMPDEST PUSH2 0x13C PUSH1 0x4 DUP1 CALLDATASIZE SUB DUP2 ADD SWAP1 PUSH2 0x137 SWAP2 SWAP1 PUSH2 0xA08 JUMP JUMPDEST PUSH2 0x46A JUMP JUMPDEST STOP JUMPDEST PUSH1 0x0 PUSH1 0x1 DUP4 PUSH1 0x40 MLOAD PUSH2 0x150 SWAP2 SWAP1 PUSH2 0xB62 JUMP JUMPDEST SWAP1 DUP2 MSTORE PUSH1 0x20 ADD PUSH1 0x40 MLOAD DUP1 SWAP2 SUB SWAP1 KECCAK256 PUSH1 0x0 SWAP1 SLOAD SWAP1 PUSH2 0x100 EXP SWAP1 DIV PUSH1 0xFF AND ISZERO PUSH2 0x1E7 JUMPI DUP2 PUSH1 0x40 MLOAD PUSH1 0x20 ADD PUSH2 0x182 SWAP2 SWAP1 PUSH2 0xB62 JUMP JUMPDEST PUSH1 0x40 MLOAD PUSH1 0x20 DUP2 DUP4 SUB SUB DUP2 MSTORE SWAP1 PUSH1 0x40 MSTORE DUP1 MLOAD SWAP1 PUSH1 0x20 ADD KECCAK256 PUSH1 0x0 DUP5 PUSH1 0x40 MLOAD PUSH2 0x1A8 SWAP2 SWAP1 PUSH2 0xB62 JUMP JUMPDEST SWAP1 DUP2 MSTORE PUSH1 0x20 ADD PUSH1 0x40 MLOAD DUP1 SWAP2 SUB SWAP1 KECCAK256 PUSH1 0x7 ADD PUSH1 0x40 MLOAD PUSH1 0x20 ADD PUSH2 0x1C9 SWAP2 SWAP1 PUSH2 0xC71 JUMP JUMPDEST PUSH1 0x40 MLOAD PUSH1 0x20 DUP2 DUP4 SUB SUB DUP2 MSTORE SWAP1 PUSH1 0x40 MSTORE DUP1 MLOAD SWAP1 PUSH1 0x20 ADD KECCAK256 EQ SWAP1 POP PUSH2 0x1EC JUMP JUMPDEST PUSH1 0x0 SWAP1 POP JUMPDEST SWAP3 SWAP2 POP POP JUMP JUMPDEST PUSH1 0x0 PUSH1 0x1 DUP3 PUSH1 0x40 MLOAD PUSH2 0x204 SWAP2 SWAP1 PUSH2 0xB62 JUMP JUMPDEST SWAP1 DUP2 MSTORE PUSH1 0x20 ADD PUSH1 0x40 MLOAD DUP1 SWAP2 SUB SWAP1 KECCAK256 PUSH1 0x0 SWAP1 SLOAD SWAP1 PUSH2 0x100 EXP SWAP1 DIV PUSH1 0xFF AND SWAP1 POP SWAP2 SWAP1 POP JUMP JUMPDEST PUSH1 0x0 DUP1 PUSH1 0x0 DUP1 PUSH1 0x0 DUP1 PUSH1 0x60 PUSH1 0x1 DUP10 PUSH1 0x40 MLOAD PUSH2 0x242 SWAP2 SWAP1 PUSH2 0xB62 JUMP JUMPDEST SWAP1 DUP2 MSTORE PUSH1 0x20 ADD PUSH1 0x40 MLOAD DUP1 SWAP2 SUB SWAP1 KECCAK256 PUSH1 0x0 SWAP1 SLOAD SWAP1 PUSH2 0x100 EXP SWAP1 DIV PUSH1 0xFF AND PUSH2 0x29D JUMPI PUSH1 0x40 MLOAD PUSH32 0x8C379A000000000000000000000000000000000000000000000000000000000 DUP2 MSTORE PUSH1 0x4 ADD PUSH2 0x294 SWAP1 PUSH2 0xCD4 JUMP JUMPDEST PUSH1 0x40 MLOAD DUP1 SWAP2 SUB SWAP1 REVERT JUMPDEST DUP8 PUSH1 0x40 MLOAD PUSH1 0x20 ADD PUSH2 0x2AE SWAP2 SWAP1 PUSH2 0xB62 JUMP JUMPDEST PUSH1 0x40 MLOAD PUSH1 0x20 DUP2 DUP4 SUB SUB DUP2 MSTORE SWAP1 PUSH1 0x40 MSTORE DUP1 MLOAD SWAP1 PUSH1 0x20 ADD KECCAK256 PUSH1 0x0 DUP11 PUSH1 0x40 MLOAD PUSH2 0x2D4 SWAP2 SWAP1 PUSH2 0xB62 JUMP JUMPDEST SWAP1 DUP2 MSTORE PUSH1 0x20 ADD PUSH1 0x40 MLOAD DUP1 SWAP2 SUB SWAP1 KECCAK256 PUSH1 0x7 ADD PUSH1 0x40 MLOAD PUSH1 0x20 ADD PUSH2 0x2F5 SWAP2 SWAP1 PUSH2 0xC71 JUMP JUMPDEST PUSH1 0x40 MLOAD PUSH1 0x20 DUP2 DUP4 SUB SUB DUP2 MSTORE SWAP1 PUSH1 0x40 MSTORE DUP1 MLOAD SWAP1 PUSH1 0x20 ADD KECCAK256 EQ PUSH2 0x34B JUMPI PUSH1 0x40 MLOAD PUSH32 0x8C379A000000000000000000000000000000000000000000000000000000000 DUP2 MSTORE PUSH1 0x4 ADD PUSH2 0x342 SWAP1 PUSH2 0xD40 JUMP JUMPDEST PUSH1 0x40 MLOAD DUP1 SWAP2 SUB SWAP1 REVERT JUMPDEST PUSH1 0x0 DUP1 DUP11 PUSH1 0x40 MLOAD PUSH2 0x35C SWAP2 SWAP1 PUSH2 0xB62 JUMP JUMPDEST SWAP1 DUP2 MSTORE PUSH1 0x20 ADD PUSH1 0x40 MLOAD DUP1 SWAP2 SUB SWAP1 KECCAK256 SWAP1 POP DUP1 PUSH1 0x0 ADD SLOAD DUP2 PUSH1 0x1 ADD SLOAD DUP3 PUSH1 0x2 ADD SLOAD DUP4 PUSH1 0x3 ADD SLOAD DUP5 PUSH1 0x4 ADD SLOAD DUP6 PUSH1 0x5 ADD SLOAD DUP7 PUSH1 0x6 ADD DUP1 DUP1 SLOAD PUSH2 0x39A SWAP1 PUSH2 0xBA8 JUMP JUMPDEST DUP1 PUSH1 0x1F ADD PUSH1 0x20 DUP1 SWAP2 DIV MUL PUSH1 0x20 ADD PUSH1 0x40 MLOAD SWAP1 DUP2 ADD PUSH1 0x40 MSTORE DUP1 SWAP3 SWAP2 SWAP1 DUP2 DUP2 MSTORE PUSH1 0x20 ADD DUP3 DUP1 SLOAD PUSH2 0x3C6 SWAP1 PUSH2 0xBA8 JUMP JUMPDEST DUP1 ISZERO PUSH2 0x413 JUMPI DUP1 PUSH1 0x1F LT PUSH2 0x3E8 JUMPI PUSH2 0x100 DUP1 DUP4 SLOAD DIV MUL DUP4 MSTORE SWAP2 PUSH1 0x20 ADD SWAP2 PUSH2 0x413 JUMP JUMPDEST DUP3 ADD SWAP2 SWAP1 PUSH1 0x0 MSTORE PUSH1 0x20 PUSH1 0x0 KECCAK256 SWAP1 JUMPDEST DUP2 SLOAD DUP2 MSTORE SWAP1 PUSH1 0x1 ADD SWAP1 PUSH1 0x20 ADD DUP1 DUP4 GT PUSH2 0x3F6 JUMPI DUP3 SWAP1 SUB PUSH1 0x1F AND DUP3 ADD SWAP2 JUMPDEST POP POP POP POP POP SWAP1 POP SWAP8 POP SWAP8 POP SWAP8 POP SWAP8 POP SWAP8 POP SWAP8 POP SWAP8 POP POP SWAP3 SWAP6 SWAP9 SWAP2 SWAP5 SWAP8 POP SWAP3 SWAP6 POP JUMP JUMPDEST PUSH1 0x0 PUSH1 0x2 DUP3 PUSH1 0x40 MLOAD PUSH2 0x447 SWAP2 SWAP1 PUSH2 0xB62 JUMP JUMPDEST SWAP1 DUP2 MSTORE PUSH1 0x20 ADD PUSH1 0x40 MLOAD DUP1 SWAP2 SUB SWAP1 KECCAK256 PUSH1 0x0 SWAP1 SLOAD SWAP1 PUSH2 0x100 EXP SWAP1 DIV PUSH1 0xFF AND SWAP1 POP SWAP2 SWAP1 POP JUMP JUMPDEST PUSH1 0x1 DUP10 PUSH1 0x40 MLOAD PUSH2 0x47A SWAP2 SWAP1 PUSH2 0xB62 JUMP JUMPDEST SWAP1 DUP2 MSTORE PUSH1 0x20 ADD PUSH1 0x40 MLOAD DUP1 SWAP2 SUB SWAP1 KECCAK256 PUSH1 0x0 SWAP1 SLOAD SWAP1 PUSH2 0x100 EXP SWAP1 DIV PUSH1 0xFF AND ISZERO PUSH2 0x4D6 JUMPI PUSH1 0x40 MLOAD PUSH32 0x8C379A000000000000000000000000000000000000000000000000000000000 DUP2 MSTORE PUSH1 0x4 ADD PUSH2 0x4CD SWAP1 PUSH2 0xDD2 JUMP JUMPDEST PUSH1 0x40 MLOAD DUP1 SWAP2 SUB SWAP1 REVERT JUMPDEST PUSH1 0x2 DUP9 PUSH1 0x40 MLOAD PUSH2 0x4E6 SWAP2 SWAP1 PUSH2 0xB62 JUMP JUMPDEST SWAP1 DUP2 MSTORE PUSH1 0x20 ADD PUSH1 0x40 MLOAD DUP1 SWAP2 SUB SWAP1 KECCAK256 PUSH1 0x0 SWAP1 SLOAD SWAP1 PUSH2 0x100 EXP SWAP1 DIV PUSH1 0xFF AND ISZERO PUSH2 0x542 JUMPI PUSH1 0x40 MLOAD PUSH32 0x8C379A000000000000000000000000000000000000000000000000000000000 DUP2 MSTORE PUSH1 0x4 ADD PUSH2 0x539 SWAP1 PUSH2 0xE64 JUMP JUMPDEST PUSH1 0x40 MLOAD DUP1 SWAP2 SUB SWAP1 REVERT JUMPDEST PUSH1 0x1 DUP1 DUP11 PUSH1 0x40 MLOAD PUSH2 0x553 SWAP2 SWAP1 PUSH2 0xB62 JUMP JUMPDEST SWAP1 DUP2 MSTORE PUSH1 0x20 ADD PUSH1 0x40 MLOAD DUP1 SWAP2 SUB SWAP1 KECCAK256 PUSH1 0x0 PUSH2 0x100 EXP DUP2 SLOAD DUP2 PUSH1 0xFF MUL NOT AND SWAP1 DUP4 ISZERO ISZERO MUL OR SWAP1 SSTORE POP PUSH1 0x1 PUSH1 0x2 DUP10 PUSH1 0x40 MLOAD PUSH2 0x58A SWAP2 SWAP1 PUSH2 0xB62 JUMP JUMPDEST SWAP1 DUP2 MSTORE PUSH1 0x20 ADD PUSH1 0x40 MLOAD DUP1 SWAP2 SUB SWAP1 KECCAK256 PUSH1 0x0 PUSH2 0x100 EXP DUP2 SLOAD DUP2 PUSH1 0xFF MUL NOT AND SWAP1 DUP4 ISZERO ISZERO MUL OR SWAP1 SSTORE POP PUSH1 0x40 MLOAD DUP1 PUSH2 0x100 ADD PUSH1 0x40 MSTORE DUP1 DUP9 DUP2 MSTORE PUSH1 0x20 ADD DUP8 DUP2 MSTORE PUSH1 0x20 ADD DUP7 DUP2 MSTORE PUSH1 0x20 ADD DUP6 DUP2 MSTORE PUSH1 0x20 ADD DUP5 DUP2 MSTORE PUSH1 0x20 ADD DUP4 DUP2 MSTORE PUSH1 0x20 ADD DUP3 DUP2 MSTORE PUSH1 0x20 ADD DUP10 DUP2 MSTORE POP PUSH1 0x0 DUP11 PUSH1 0x40 MLOAD PUSH2 0x5F9 SWAP2 SWAP1 PUSH2 0xB62 JUMP JUMPDEST SWAP1 DUP2 MSTORE PUSH1 0x20 ADD PUSH1 0x40 MLOAD DUP1 SWAP2 SUB SWAP1 KECCAK256 PUSH1 0x0 DUP3 ADD MLOAD DUP2 PUSH1 0x0 ADD SSTORE PUSH1 0x20 DUP3 ADD MLOAD DUP2 PUSH1 0x1 ADD SSTORE PUSH1 0x40 DUP3 ADD MLOAD DUP2 PUSH1 0x2 ADD SSTORE PUSH1 0x60 DUP3 ADD MLOAD DUP2 PUSH1 0x3 ADD SSTORE PUSH1 0x80 DUP3 ADD MLOAD DUP2 PUSH1 0x4 ADD SSTORE PUSH1 0xA0 DUP3 ADD MLOAD DUP2 PUSH1 0x5 ADD SSTORE PUSH1 0xC0 DUP3 ADD MLOAD DUP2 PUSH1 0x6 ADD SWAP1 DUP2 PUSH2 0x658 SWAP2 SWAP1 PUSH2 0x1025 JUMP JUMPDEST POP PUSH1 0xE0 DUP3 ADD MLOAD DUP2 PUSH1 0x7 ADD SWAP1 DUP2 PUSH2 0x66E SWAP2 SWAP1 PUSH2 0x1025 JUMP JUMPDEST POP SWAP1 POP POP POP POP POP POP POP POP POP POP POP JUMP JUMPDEST PUSH1 0x0 PUSH1 0x40 MLOAD SWAP1 POP SWAP1 JUMP JUMPDEST PUSH1 0x0 DUP1 REVERT JUMPDEST PUSH1 0x0 DUP1 REVERT JUMPDEST PUSH1 0x0 DUP1 REVERT JUMPDEST PUSH1 0x0 DUP1 REVERT JUMPDEST PUSH1 0x0 PUSH1 0x1F NOT PUSH1 0x1F DUP4 ADD AND SWAP1 POP SWAP2 SWAP1 POP JUMP JUMPDEST PUSH32 0x4E487B7100000000000000000000000000000000000000000000000000000000 PUSH1 0x0 MSTORE PUSH1 0x41 PUSH1 0x4 MSTORE PUSH1 0x24 PUSH1 0x0 REVERT JUMPDEST PUSH2 0x6E4 DUP3 PUSH2 0x69B JUMP JUMPDEST DUP2 ADD DUP2 DUP2 LT PUSH8 0xFFFFFFFFFFFFFFFF DUP3 GT OR ISZERO PUSH2 0x703 JUMPI PUSH2 0x702 PUSH2 0x6AC JUMP JUMPDEST JUMPDEST DUP1 PUSH1 0x40 MSTORE POP POP POP JUMP JUMPDEST PUSH1 0x0 PUSH2 0x716 PUSH2 0x67D JUMP JUMPDEST SWAP1 POP PUSH2 0x722 DUP3 DUP3 PUSH2 0x6DB JUMP JUMPDEST SWAP2 SWAP1 POP JUMP JUMPDEST PUSH1 0x0 PUSH8 0xFFFFFFFFFFFFFFFF DUP3 GT ISZERO PUSH2 0x742 JUMPI PUSH2 0x741 PUSH2 0x6AC JUMP JUMPDEST JUMPDEST PUSH2 0x74B DUP3 PUSH2 0x69B JUMP JUMPDEST SWAP1 POP PUSH1 0x20 DUP2 ADD SWAP1 POP SWAP2 SWAP1 POP JUMP JUMPDEST DUP3 DUP2 DUP4 CALLDATACOPY PUSH1 0x0 DUP4 DUP4 ADD MSTORE POP POP POP JUMP JUMPDEST PUSH1 0x0 PUSH2 0x77A PUSH2 0x775 DUP5 PUSH2 0x727 JUMP JUMPDEST PUSH2 0x70C JUMP JUMPDEST SWAP1 POP DUP3 DUP2 MSTORE PUSH1 0x20 DUP2 ADD DUP5 DUP5 DUP5 ADD GT ISZERO PUSH2 0x796 JUMPI PUSH2 0x795 PUSH2 0x696 JUMP JUMPDEST JUMPDEST PUSH2 0x7A1 DUP5 DUP3 DUP6 PUSH2 0x758 JUMP JUMPDEST POP SWAP4 SWAP3 POP POP POP JUMP JUMPDEST PUSH1 0x0 DUP3 PUSH1 0x1F DUP4 ADD SLT PUSH2 0x7BE JUMPI PUSH2 0x7BD PUSH2 0x691 JUMP JUMPDEST JUMPDEST DUP2 CALLDATALOAD PUSH2 0x7CE DUP5 DUP3 PUSH1 0x20 DUP7 ADD PUSH2 0x767 JUMP JUMPDEST SWAP2 POP POP SWAP3 SWAP2 POP POP JUMP JUMPDEST PUSH1 0x0 DUP1 PUSH1 0x40 DUP4 DUP6 SUB SLT ISZERO PUSH2 0x7EE JUMPI PUSH2 0x7ED PUSH2 0x687 JUMP JUMPDEST JUMPDEST PUSH1 0x0 DUP4 ADD CALLDATALOAD PUSH8 0xFFFFFFFFFFFFFFFF DUP2 GT ISZERO PUSH2 0x80C JUMPI PUSH2 0x80B PUSH2 0x68C JUMP JUMPDEST JUMPDEST PUSH2 0x818 DUP6 DUP3 DUP7 ADD PUSH2 0x7A9 JUMP JUMPDEST SWAP3 POP POP PUSH1 0x20 DUP4 ADD CALLDATALOAD PUSH8 0xFFFFFFFFFFFFFFFF DUP2 GT ISZERO PUSH2 0x839 JUMPI PUSH2 0x838 PUSH2 0x68C JUMP JUMPDEST JUMPDEST PUSH2 0x845 DUP6 DUP3 DUP7 ADD PUSH2 0x7A9 JUMP JUMPDEST SWAP2 POP POP SWAP3 POP SWAP3 SWAP1 POP JUMP JUMPDEST PUSH1 0x0 DUP2 ISZERO ISZERO SWAP1 POP SWAP2 SWAP1 POP JUMP JUMPDEST PUSH2 0x864 DUP2 PUSH2 0x84F JUMP JUMPDEST DUP3 MSTORE POP POP JUMP JUMPDEST PUSH1 0x0 PUSH1 0x20 DUP3 ADD SWAP1 POP PUSH2 0x87F PUSH1 0x0 DUP4 ADD DUP5 PUSH2 0x85B JUMP JUMPDEST SWAP3 SWAP2 POP POP JUMP JUMPDEST PUSH1 0x0 PUSH1 0x20 DUP3 DUP5 SUB SLT ISZERO PUSH2 0x89B JUMPI PUSH2 0x89A PUSH2 0x687 JUMP JUMPDEST JUMPDEST PUSH1 0x0 DUP3 ADD CALLDATALOAD PUSH8 0xFFFFFFFFFFFFFFFF DUP2 GT ISZERO PUSH2 0x8B9 JUMPI PUSH2 0x8B8 PUSH2 0x68C JUMP JUMPDEST JUMPDEST PUSH2 0x8C5 DUP5 DUP3 DUP6 ADD PUSH2 0x7A9 JUMP JUMPDEST SWAP2 POP POP SWAP3 SWAP2 POP POP JUMP JUMPDEST PUSH1 0x0 DUP2 SWAP1 POP SWAP2 SWAP1 POP JUMP JUMPDEST PUSH2 0x8E1 DUP2 PUSH2 0x8CE JUMP JUMPDEST DUP3 MSTORE POP POP JUMP JUMPDEST PUSH1 0x0 DUP2 MLOAD SWAP1 POP SWAP2 SWAP1 POP JUMP JUMPDEST PUSH1 0x0 DUP3 DUP3 MSTORE PUSH1 0x20 DUP3 ADD SWAP1 POP SWAP3 SWAP2 POP POP JUMP JUMPDEST PUSH1 0x0 JUMPDEST DUP4 DUP2 LT ISZERO PUSH2 0x921 JUMPI DUP1 DUP3 ADD MLOAD DUP2 DUP5 ADD MSTORE PUSH1 0x20 DUP2 ADD SWAP1 POP PUSH2 0x906 JUMP JUMPDEST PUSH1 0x0 DUP5 DUP5 ADD MSTORE POP POP POP POP JUMP JUMPDEST PUSH1 0x0 PUSH2 0x938 DUP3 PUSH2 0x8E7 JUMP JUMPDEST PUSH2 0x942 DUP2 DUP6 PUSH2 0x8F2 JUMP JUMPDEST SWAP4 POP PUSH2 0x952 DUP2 DUP6 PUSH1 0x20 DUP7 ADD PUSH2 0x903 JUMP JUMPDEST PUSH2 0x95B DUP2 PUSH2 0x69B JUMP JUMPDEST DUP5 ADD SWAP2 POP POP SWAP3 SWAP2 POP POP JUMP JUMPDEST PUSH1 0x0 PUSH1 0xE0 DUP3 ADD SWAP1 POP PUSH2 0x97B PUSH1 0x0 DUP4 ADD DUP11 PUSH2 0x8D8 JUMP JUMPDEST PUSH2 0x988 PUSH1 0x20 DUP4 ADD DUP10 PUSH2 0x8D8 JUMP JUMPDEST PUSH2 0x995 PUSH1 0x40 DUP4 ADD DUP9 PUSH2 0x8D8 JUMP JUMPDEST PUSH2 0x9A2 PUSH1 0x60 DUP4 ADD DUP8 PUSH2 0x8D8 JUMP JUMPDEST PUSH2 0x9AF PUSH1 0x80 DUP4 ADD DUP7 PUSH2 0x8D8 JUMP JUMPDEST PUSH2 0x9BC PUSH1 0xA0 DUP4 ADD DUP6 PUSH2 0x8D8 JUMP JUMPDEST DUP2 DUP2 SUB PUSH1 0xC0 DUP4 ADD MSTORE PUSH2 0x9CE DUP2 DUP5 PUSH2 0x92D JUMP JUMPDEST SWAP1 POP SWAP9 SWAP8 POP POP POP POP POP POP POP POP JUMP JUMPDEST PUSH2 0x9E5 DUP2 PUSH2 0x8CE JUMP JUMPDEST DUP2 EQ PUSH2 0x9F0 JUMPI PUSH1 0x0 DUP1 REVERT JUMPDEST POP JUMP JUMPDEST PUSH1 0x0 DUP2 CALLDATALOAD SWAP1 POP PUSH2 0xA02 DUP2 PUSH2 0x9DC JUMP JUMPDEST SWAP3 SWAP2 POP POP JUMP JUMPDEST PUSH1 0x0 DUP1 PUSH1 0x0 DUP1 PUSH1 0x0 DUP1 PUSH1 0x0 DUP1 PUSH1 0x0 PUSH2 0x120 DUP11 DUP13 SUB SLT ISZERO PUSH2 0xA2B JUMPI PUSH2 0xA2A PUSH2 0x687 JUMP JUMPDEST JUMPDEST PUSH1 0x0 DUP11 ADD CALLDATALOAD PUSH8 0xFFFFFFFFFFFFFFFF DUP2 GT ISZERO PUSH2 0xA49 JUMPI PUSH2 0xA48 PUSH2 0x68C JUMP JUMPDEST JUMPDEST PUSH2 0xA55 DUP13 DUP3 DUP14 ADD PUSH2 0x7A9 JUMP JUMPDEST SWAP10 POP POP PUSH1 0x20 DUP11 ADD CALLDATALOAD PUSH8 0xFFFFFFFFFFFFFFFF DUP2 GT ISZERO PUSH2 0xA76 JUMPI PUSH2 0xA75 PUSH2 0x68C JUMP JUMPDEST JUMPDEST PUSH2 0xA82 DUP13 DUP3 DUP14 ADD PUSH2 0x7A9 JUMP JUMPDEST SWAP9 POP POP PUSH1 0x40 PUSH2 0xA93 DUP13 DUP3 DUP14 ADD PUSH2 0x9F3 JUMP JUMPDEST SWAP8 POP POP PUSH1 0x60 PUSH2 0xAA4 DUP13 DUP3 DUP14 ADD PUSH2 0x9F3 JUMP JUMPDEST SWAP7 POP POP PUSH1 0x80 PUSH2 0xAB5 DUP13 DUP3 DUP14 ADD PUSH2 0x9F3 JUMP JUMPDEST SWAP6 POP POP PUSH1 0xA0 PUSH2 0xAC6 DUP13 DUP3 DUP14 ADD PUSH2 0x9F3 JUMP JUMPDEST SWAP5 POP POP PUSH1 0xC0 PUSH2 0xAD7 DUP13 DUP3 DUP14 ADD PUSH2 0x9F3 JUMP JUMPDEST SWAP4 POP POP PUSH1 0xE0 PUSH2 0xAE8 DUP13 DUP3 DUP14 ADD PUSH2 0x9F3 JUMP JUMPDEST SWAP3 POP POP PUSH2 0x100 DUP11 ADD CALLDATALOAD PUSH8 0xFFFFFFFFFFFFFFFF DUP2 GT ISZERO PUSH2 0xB0A JUMPI PUSH2 0xB09 PUSH2 0x68C JUMP JUMPDEST JUMPDEST PUSH2 0xB16 DUP13 DUP3 DUP14 ADD PUSH2 0x7A9 JUMP JUMPDEST SWAP2 POP POP SWAP3 SWAP6 SWAP9 POP SWAP3 SWAP6 SWAP9 POP SWAP3 SWAP6 SWAP9 JUMP JUMPDEST PUSH1 0x0 DUP2 SWAP1 POP SWAP3 SWAP2 POP POP JUMP JUMPDEST PUSH1 0x0 PUSH2 0xB3C DUP3 PUSH2 0x8E7 JUMP JUMPDEST PUSH2 0xB46 DUP2 DUP6 PUSH2 0xB26 JUMP JUMPDEST SWAP4 POP PUSH2 0xB56 DUP2 DUP6 PUSH1 0x20 DUP7 ADD PUSH2 0x903 JUMP JUMPDEST DUP1 DUP5 ADD SWAP2 POP POP SWAP3 SWAP2 POP POP JUMP JUMPDEST PUSH1 0x0 PUSH2 0xB6E DUP3 DUP5 PUSH2 0xB31 JUMP JUMPDEST SWAP2 POP DUP2 SWAP1 POP SWAP3 SWAP2 POP POP JUMP JUMPDEST PUSH32 0x4E487B7100000000000000000000000000000000000000000000000000000000 PUSH1 0x0 MSTORE PUSH1 0x22 PUSH1 0x4 MSTORE PUSH1 0x24 PUSH1 0x0 REVERT JUMPDEST PUSH1 0x0 PUSH1 0x2 DUP3 DIV SWAP1 POP PUSH1 0x1 DUP3 AND DUP1 PUSH2 0xBC0 JUMPI PUSH1 0x7F DUP3 AND SWAP2 POP JUMPDEST PUSH1 0x20 DUP3 LT DUP2 SUB PUSH2 0xBD3 JUMPI PUSH2 0xBD2 PUSH2 0xB79 JUMP JUMPDEST JUMPDEST POP SWAP2 SWAP1 POP JUMP JUMPDEST PUSH1 0x0 DUP2 SWAP1 POP DUP2 PUSH1 0x0 MSTORE PUSH1 0x20 PUSH1 0x0 KECCAK256 SWAP1 POP SWAP2 SWAP1 POP JUMP JUMPDEST PUSH1 0x0 DUP2 SLOAD PUSH2 0xBFB DUP2 PUSH2 0xBA8 JUMP JUMPDEST PUSH2 0xC05 DUP2 DUP7 PUSH2 0xB26 JUMP JUMPDEST SWAP5 POP PUSH1 0x1 DUP3 AND PUSH1 0x0 DUP2 EQ PUSH2 0xC20 JUMPI PUSH1 0x1 DUP2 EQ PUSH2 0xC35 JUMPI PUSH2 0xC68 JUMP JUMPDEST PUSH1 0xFF NOT DUP4 AND DUP7 MSTORE DUP2 ISZERO ISZERO DUP3 MUL DUP7 ADD SWAP4 POP PUSH2 0xC68 JUMP JUMPDEST PUSH2 0xC3E DUP6 PUSH2 0xBD9 JUMP JUMPDEST PUSH1 0x0 JUMPDEST DUP4 DUP2 LT ISZERO PUSH2 0xC60 JUMPI DUP2 SLOAD DUP2 DUP10 ADD MSTORE PUSH1 0x1 DUP3 ADD SWAP2 POP PUSH1 0x20 DUP2 ADD SWAP1 POP PUSH2 0xC41 JUMP JUMPDEST DUP4 DUP9 ADD SWAP6 POP POP POP JUMPDEST POP POP POP SWAP3 SWAP2 POP POP JUMP JUMPDEST PUSH1 0x0 PUSH2 0xC7D DUP3 DUP5 PUSH2 0xBEE JUMP JUMPDEST SWAP2 POP DUP2 SWAP1 POP SWAP3 SWAP2 POP POP JUMP JUMPDEST PUSH32 0x46696C65204E756D62657220646F6573206E6F74206578697374000000000000 PUSH1 0x0 DUP3 ADD MSTORE POP JUMP JUMPDEST PUSH1 0x0 PUSH2 0xCBE PUSH1 0x1A DUP4 PUSH2 0x8F2 JUMP JUMPDEST SWAP2 POP PUSH2 0xCC9 DUP3 PUSH2 0xC88 JUMP JUMPDEST PUSH1 0x20 DUP3 ADD SWAP1 POP SWAP2 SWAP1 POP JUMP JUMPDEST PUSH1 0x0 PUSH1 0x20 DUP3 ADD SWAP1 POP DUP2 DUP2 SUB PUSH1 0x0 DUP4 ADD MSTORE PUSH2 0xCED DUP2 PUSH2 0xCB1 JUMP JUMPDEST SWAP1 POP SWAP2 SWAP1 POP JUMP JUMPDEST PUSH32 0x496E76616C6964205365637572697479204B6579000000000000000000000000 PUSH1 0x0 DUP3 ADD MSTORE POP JUMP JUMPDEST PUSH1 0x0 PUSH2 0xD2A PUSH1 0x14 DUP4 PUSH2 0x8F2 JUMP JUMPDEST SWAP2 POP PUSH2 0xD35 DUP3 PUSH2 0xCF4 JUMP JUMPDEST PUSH1 0x20 DUP3 ADD SWAP1 POP SWAP2 SWAP1 POP JUMP JUMPDEST PUSH1 0x0 PUSH1 0x20 DUP3 ADD SWAP1 POP DUP2 DUP2 SUB PUSH1 0x0 DUP4 ADD MSTORE PUSH2 0xD59 DUP2 PUSH2 0xD1D JUMP JUMPDEST SWAP1 POP SWAP2 SWAP1 POP JUMP JUMPDEST PUSH32 0x46696C65204E756D6265722068617320616C7265616479206265656E20757365 PUSH1 0x0 DUP3 ADD MSTORE PUSH32 0x6400000000000000000000000000000000000000000000000000000000000000 PUSH1 0x20 DUP3 ADD MSTORE POP JUMP JUMPDEST PUSH1 0x0 PUSH2 0xDBC PUSH1 0x21 DUP4 PUSH2 0x8F2 JUMP JUMPDEST SWAP2 POP PUSH2 0xDC7 DUP3 PUSH2 0xD60 JUMP JUMPDEST PUSH1 0x40 DUP3 ADD SWAP1 POP SWAP2 SWAP1 POP JUMP JUMPDEST PUSH1 0x0 PUSH1 0x20 DUP3 ADD SWAP1 POP DUP2 DUP2 SUB PUSH1 0x0 DUP4 ADD MSTORE PUSH2 0xDEB DUP2 PUSH2 0xDAF JUMP JUMPDEST SWAP1 POP SWAP2 SWAP1 POP JUMP JUMPDEST PUSH32 0x5365637572697479204B65792068617320616C7265616479206265656E207573 PUSH1 0x0 DUP3 ADD MSTORE PUSH32 0x6564000000000000000000000000000000000000000000000000000000000000 PUSH1 0x20 DUP3 ADD MSTORE POP JUMP JUMPDEST PUSH1 0x0 PUSH2 0xE4E PUSH1 0x22 DUP4 PUSH2 0x8F2 JUMP JUMPDEST SWAP2 POP PUSH2 0xE59 DUP3 PUSH2 0xDF2 JUMP JUMPDEST PUSH1 0x40 DUP3 ADD SWAP1 POP SWAP2 SWAP1 POP JUMP JUMPDEST PUSH1 0x0 PUSH1 0x20 DUP3 ADD SWAP1 POP DUP2 DUP2 SUB PUSH1 0x0 DUP4 ADD MSTORE PUSH2 0xE7D DUP2 PUSH2 0xE41 JUMP JUMPDEST SWAP1 POP SWAP2 SWAP1 POP JUMP JUMPDEST PUSH1 0x0 PUSH1 0x20 PUSH1 0x1F DUP4 ADD DIV SWAP1 POP SWAP2 SWAP1 POP JUMP JUMPDEST PUSH1 0x0 DUP3 DUP3 SHL SWAP1 POP SWAP3 SWAP2 POP POP JUMP JUMPDEST PUSH1 0x0 PUSH1 0x8 DUP4 MUL PUSH2 0xED1 PUSH32 0xFFFFFFFFFFFFFFFFFFFFFFFFFFFFFFFFFFFFFFFFFFFFFFFFFFFFFFFFFFFFFFFF DUP3 PUSH2 0xE94 JUMP JUMPDEST PUSH2 0xEDB DUP7 DUP4 PUSH2 0xE94 JUMP JUMPDEST SWAP6 POP DUP1 NOT DUP5 AND SWAP4 POP DUP1 DUP7 AND DUP5 OR SWAP3 POP POP POP SWAP4 SWAP3 POP POP POP JUMP JUMPDEST PUSH1 0x0 DUP2 SWAP1 POP SWAP2 SWAP1 POP JUMP JUMPDEST PUSH1 0x0 DUP2 SWAP1 POP SWAP2 SWAP1 POP JUMP JUMPDEST PUSH1 0x0 PUSH2 0xF22 PUSH2 0xF1D PUSH2 0xF18 DUP5 PUSH2 0xEF3 JUMP JUMPDEST PUSH2 0xEFD JUMP JUMPDEST PUSH2 0xEF3 JUMP JUMPDEST SWAP1 POP SWAP2 SWAP1 POP JUMP JUMPDEST PUSH1 0x0 DUP2 SWAP1 POP SWAP2 SWAP1 POP JUMP JUMPDEST PUSH2 0xF3C DUP4 PUSH2 0xF07 JUMP JUMPDEST PUSH2 0xF50 PUSH2 0xF48 DUP3 PUSH2 0xF29 JUMP JUMPDEST DUP5 DUP5 SLOAD PUSH2 0xEA1 JUMP JUMPDEST DUP3 SSTORE POP POP POP POP JUMP JUMPDEST PUSH1 0x0 SWAP1 JUMP JUMPDEST PUSH2 0xF65 PUSH2 0xF58 JUMP JUMPDEST PUSH2 0xF70 DUP2 DUP5 DUP5 PUSH2 0xF33 JUMP JUMPDEST POP POP POP JUMP JUMPDEST JUMPDEST DUP2 DUP2 LT ISZERO PUSH2 0xF94 JUMPI PUSH2 0xF89 PUSH1 0x0 DUP3 PUSH2 0xF5D JUMP JUMPDEST PUSH1 0x1 DUP2 ADD SWAP1 POP PUSH2 0xF76 JUMP JUMPDEST POP POP JUMP JUMPDEST PUSH1 0x1F DUP3 GT ISZERO PUSH2 0xFD9 JUMPI PUSH2 0xFAA DUP2 PUSH2 0xBD9 JUMP JUMPDEST PUSH2 0xFB3 DUP5 PUSH2 0xE84 JUMP JUMPDEST DUP2 ADD PUSH1 0x20 DUP6 LT ISZERO PUSH2 0xFC2 JUMPI DUP2 SWAP1 POP JUMPDEST PUSH2 0xFD6 PUSH2 0xFCE DUP6 PUSH2 0xE84 JUMP JUMPDEST DUP4 ADD DUP3 PUSH2 0xF75 JUMP JUMPDEST POP POP JUMPDEST POP POP POP JUMP JUMPDEST PUSH1 0x0 DUP3 DUP3 SHR SWAP1 POP SWAP3 SWAP2 POP POP JUMP JUMPDEST PUSH1 0x0 PUSH2 0xFFC PUSH1 0x0 NOT DUP5 PUSH1 0x8 MUL PUSH2 0xFDE JUMP JUMPDEST NOT DUP1 DUP4 AND SWAP2 POP POP SWAP3 SWAP2 POP POP JUMP JUMPDEST PUSH1 0x0 PUSH2 0x1015 DUP4 DUP4 PUSH2 0xFEB JUMP JUMPDEST SWAP2 POP DUP3 PUSH1 0x2 MUL DUP3 OR SWAP1 POP SWAP3 SWAP2 POP POP JUMP JUMPDEST PUSH2 0x102E DUP3 PUSH2 0x8E7 JUMP JUMPDEST PUSH8 0xFFFFFFFFFFFFFFFF DUP2 GT ISZERO PUSH2 0x1047 JUMPI PUSH2 0x1046 PUSH2 0x6AC JUMP JUMPDEST JUMPDEST PUSH2 0x1051 DUP3 SLOAD PUSH2 0xBA8 JUMP JUMPDEST PUSH2 0x105C DUP3 DUP3 DUP6 PUSH2 0xF98 JUMP JUMPDEST PUSH1 0x0 PUSH1 0x20 SWAP1 POP PUSH1 0x1F DUP4 GT PUSH1 0x1 DUP2 EQ PUSH2 0x108F JUMPI PUSH1 0x0 DUP5 ISZERO PUSH2 0x107D JUMPI DUP3 DUP8 ADD MLOAD SWAP1 POP JUMPDEST PUSH2 0x1087 DUP6 DUP3 PUSH2 0x1009 JUMP JUMPDEST DUP7 SSTORE POP PUSH2 0x10EF JUMP JUMPDEST PUSH1 0x1F NOT DUP5 AND PUSH2 0x109D DUP7 PUSH2 0xBD9 JUMP JUMPDEST PUSH1 0x0 JUMPDEST DUP3 DUP2 LT ISZERO PUSH2 0x10C5 JUMPI DUP5 DUP10 ADD MLOAD DUP3 SSTORE PUSH1 0x1 DUP3 ADD SWAP2 POP PUSH1 0x20 DUP6 ADD SWAP5 POP PUSH1 0x20 DUP2 ADD SWAP1 POP PUSH2 0x10A0 JUMP JUMPDEST DUP7 DUP4 LT ISZERO PUSH2 0x10E2 JUMPI DUP5 DUP10 ADD MLOAD PUSH2 0x10DE PUSH1 0x1F DUP10 AND DUP3 PUSH2 0xFEB JUMP JUMPDEST DUP4 SSTORE POP JUMPDEST PUSH1 0x1 PUSH1 0x2 DUP9 MUL ADD DUP9 SSTORE POP POP POP JUMPDEST POP POP POP POP POP POP JUMP INVALID LOG2 PUSH5 0x6970667358 0x22 SLT KECCAK256 0xBA 0xDB MULMOD 0xF9 0xD2 DUP13 0xBC REVERT MSTORE8 RETURNDATASIZE 0xA9 SIGNEXTEND SWAP2 0xE4 DUP14 POP PUSH27 0xE03AFEEC5ADF5B4DB6338E9AFD570864736F6C6343000818003300 "
        },
        "methodIdentifiers": {
          "addClientLandDetails(string,string,int256,int256,int256,int256,int256,int256,string)": "d5790c48",
          "getClientLandDetails(string,string)": "ab914d52",
          "hasBeenUsedTogether(string,string)": "143a8aa5",
          "hasFileNumberBeenUsed(string)": "59b9953a",
          "hasSecurityKeyBeenUsed(string)": "b2b421a7"
        }
      }
    }
  }
}